:020000040800F2
:1000000000000220BD2C010839DA000875DA00086A
:1000100089DA00088DDA000891DA00080000000093
:1000200000000000000000000000000001B800080F
:1000300095DA00080000000091B8000899DA00087D
:10004000112D0108112D0108112D0108112D010894
:10005000112D0108112D010861DC0008112D010886
:1000600069DC000871DC000879DC00089DDA000812
:10007000112D0108A9DA0008112D0108B5DA0008D0
:10008000C1DA0008112D01086DDB0008CDDA000887
:10009000D9DA0008DDDA0008E1DA000881DC0008BE
:1000A000112D010821DC0008112D0108112D010876
:1000B000112D0108112D0108112D010849DC00083E
:1000C00055DC0008112D0108112D0108112D010822
:1000D000112D0108112D0108112D0108112D010804
:1000E000A9DC0008112D0108112D0108112D0108AE
:1000F00035DC0008E5DA0008112D0108112D010892
:10010000112D0108112D010801DC000801DB000898
:100110000DDB0008112D0108112D0108112D01081A
:10012000112D0108112D0108112D0108112D0108B3
:10013000112D01080000000000000000112D010831
:10014000112D0108112D0108112D010819DB0008DE
:10015000112D0108112D0108112D0108112D010883
:10016000112D0108112D0108112D0108112D010873
:10017000112D0108112D01080000000000000000F1
:08018000112D0108112D0108E9
:1001C0000348044B834202D0034B03B118477047E6
:1001D000E0060020E0060020000000000548064977
:1001E000091A891001EBD171491002D0034B03B1F8
:1001F00018477047E0060020E006002000000000DD
:1002000010B5064C237843B9FFF7DAFF044B13B15E
:100210000448AFF300800123237010BDE8060020DE
:1002200000000000C848020808B5044B1BB104498F
:100230000448AFF30080BDE80840CFE700000000AD
:10024000EC060020C848020810EE102A22F00041F7
:10025000CB0D7F3B162B1CDC002B10EE100A1EDB97
:10026000194919410A4227D0DFED187A70EE277A32
:10027000F5EEC07AF1EE10FA1EDD002A04DA4FF432
:10028000000242FA03F3184420EA010300EE103A98
:100290007047B1F1FF4F0FD330EE000A7047DFED2A
:1002A0000B7A70EE277AF5EEC07AF1EE10FA03DDE4
:1002B000002A02DB9FED060A70470029FFEE007A54
:1002C00018BFB0EE670A7047FFFF7F00CAF249719E
:1002D0000000000082B08DED010A0199C1F3C753FF
:1002E000A3F17F02162A0CDC002A10DB1048104113
:1002F000014208D04FF4800313410B4423EA00036A
:100300000BE0802A0DD09DED010A02B0704701324A
:1003100001F0004301D143F07E5300EE103A02B0E9
:100320007047DDED017A37EEA70A02B0704700BFD3
:10033000FFFF7F00D0B52DED028B8AB0F0EE408A32
:10034000B0EE608A00F056F8284B93F90040631C29
:1003500039D0B4EE488AF1EE10FA34D6F4EE688A59
:10036000F1EE10FA2FD6B5EE408AF1EE10FA2AD14E
:1003700001231F4A009318EE900A0023019208936C
:1003800007F0E2F906460F4618EE100ACDE90267BB
:1003900007F0DAF9CDE90401CCB1002200231046C0
:1003A000194607F053FB022CCDE9060111D100F0EC
:1003B000E5F821230360089B9BB9DDE9060107F0FE
:1003C00013FD00EE100A0AB0BDEC028BD0BDCDE9E2
:1003D0000667684600F0A4F80028E8D0089B002BC8
:1003E000EBD000F0CBF8089B0360E6E700000020AC
:1003F000387B020810EE903A33F000413DD0F0B463
:1004000010EE104A24F00042B2F1FF4F2FDAB1F1A2
:10041000FF4F2CDC8A422EDB04F0004632D03E48EF
:10042000824236DDD0157F38B1F5000F5EDA0F025B
:100430006FF07D057F0005F1FF35FBD510F17E0FD4
:100440004FDBC4F3160242F4000215F17E0F43DBCA
:10045000C3F3160343F40001401B02E012D05A001C
:100460000138531AF8B1002BF8DA5200F8E760EEC1
:10047000200A80EEA00AF0BC704760EE200A80EEF1
:10048000A00A7047254AF30F02EB830393ED000A9D
:10049000F1E7150236D06FF07D006D00002D00F100
:1004A000FF30FADCC0E733EA230328BF1346002BF2
:1004B000E8D0194A934204DC5B00934205F1FF3512
:1004C000FADD15F17E0F14DA6FF07D02551B2B411A
:1004D000334300EE103ACEE76FF07D035B1B99408B
:1004E000BAE76FF07D04241AA240AEE7CD157F3D38
:1004F000A4E7A3F5000333437F3543EAC55300EE79
:10050000103AB8E7814204DDCD157F3D6FF07D00E4
:1005100097E76FF07D008AE7FFFF7F0094490208AC
:100520000020704708B5062001F06EFC012008F09D
:1005300073FE00BF00B50A4C2668054685B01C4610
:10054000F06852B1074B0091CDE9013206492B46C4
:10055000224600F027F8FFF7E5FF044B1A46F2E7C2
:1005600004000020407B0208507B0208986C0208BF
:1005700008B513460022FFF7DDFF00BF014B1868E6
:10058000704700BF040000200CB400B583B004AB7A
:1005900053F8042B019300F02DFA03B05DF804EB3F
:1005A00002B070470EB410B583B005AB064C53F8DB
:1005B000042B01930146206800F01CFA03B0BDE84B
:1005C000104003B0704700BF0400002070B50D4E0E
:1005D0000D4D761BB61006D00024013455F8043BAF
:1005E0009847A642F9D1094E094D761B24F06CF9C3
:1005F000B61006D00024013455F8043B9847A642B3
:10060000F9D170BDC4820208C4820208DC820208EB
:10061000C4820208024B0146186800F043B900BFCB
:1006200004000020024B0146186800F0E7B800BF44
:1006300004000020844641EA000313F003036DD157
:10064000403A41D351F8043B40F8043B51F8043B95
:1006500040F8043B51F8043B40F8043B51F8043B9C
:1006600040F8043B51F8043B40F8043B51F8043B8C
:1006700040F8043B51F8043B40F8043B51F8043B7C
:1006800040F8043B51F8043B40F8043B51F8043B6C
:1006900040F8043B51F8043B40F8043B51F8043B5C
:1006A00040F8043B51F8043B40F8043B51F8043B4C
:1006B00040F8043B51F8043B40F8043B51F8043B3C
:1006C00040F8043B403ABDD2303211D351F8043BDC
:1006D00040F8043B51F8043B40F8043B51F8043B1C
:1006E00040F8043B51F8043B40F8043B103AEDD28B
:1006F0000C3205D351F8043B40F8043B043AF9D2DC
:10070000043208D0D2071CBF11F8013B00F8013BAE
:1007100001D30B8803806046704700BF082A13D3BB
:100720008B078DD010F003038AD0C3F10403D21AD3
:10073000DB071CBF11F8013B00F8013B80D331F807
:10074000023B20F8023B7BE7043AD9D3013A11F887
:10075000013B00F8013BF9D20B7803704B784370F2
:100760008B78837060467047F0B4860743D0541E80
:10077000002A3ED0CAB2034602E014F1FF3438D357
:1007800003F8012B9D07F8D1032C2BD9CDB245EAF4
:1007900005250F2C45EA054516D9A4F110073F0998
:1007A00003F1200606EB071603F1100242E9045597
:1007B00042E902551032B242F8D104F00F04013779
:1007C000032C03EB07130DD91E462246043A032AD5
:1007D00046F8045BFAD8221F22F0030204321344C5
:1007E00004F003042CB1C9B21C4403F8011B9C4261
:1007F000FBD1F0BC704714460346C5E779B338B562
:1008000051F8043C0C1F002BB8BFE418054605F056
:10081000B3F9234B1A682AB1A2420DD92168601896
:10082000824230D0626028461C60BDE8384005F046
:10083000A5B9A34203D81A465368002BF9D1116811
:100840005018A04213D00BD821686018834220D0E2
:10085000636054602846BDE8384005F08FB97047A2
:100860000C232B602846BDE8384005F087B9206886
:100870000144501883421160ECD1D3E900030144D4
:1008800053601160E6E7D2E9000201446260216032
:10089000C9E7D3E900030144636021605460D9E7EC
:1008A00004070020F8B5CD1C25F0030508350C2DF4
:1008B00038BF0C25002D06463ADBA94238D82A4F0E
:1008C00005F05AF93A6852B113685B1B04D433E05F
:1008D00023685B1B25D522465468002CF8D1796823
:1008E00000293BD02946304601F0F0F9431C2AD0BC
:1008F000C41C24F00304A04205D0211A304601F0A4
:10090000E5F901301FD02560304605F037F904F1D4
:100910000B0020F00700231DC31A01D05A42E250F9
:10092000F8BD0B2B0BD8A24215D063685360EBE7E0
:100930000C2333600020F8BD0B2B0BD91446236029
:100940001C442560E0E70C233046336005F016F9BF
:100950000020F8BD54683C601446D5E7304601F0ED
:10096000B5F97860BEE700BF040700209368013B3B
:10097000002B936005DB1368581C10601970084643
:10098000704710B49469A34209DB0A2907D01368A1
:10099000581C1060197008465DF8044B70475DF8EC
:1009A000044B02F033BF00BF9BB1F8B5D5180F461A
:1009B0000646013D541E01E0AC4208D03A4614F808
:1009C000011F3046FFF7D2FF431CF5D1F8BD0020D0
:1009D000F8BD0020704700BF936810B5144613B9E6
:1009E0005360184610BD04F0B7F90023C4E9013381
:1009F00010BD00BF2DE9F04F9FB0894614461D463B
:100A0000039018B18369002B00F0C180A14B994578
:100A100000F0C380A04B994500F0D1809F4B9945D1
:100A200004BF039BD3F80C90B9F80C30180740F1C1
:100A3000BC80D9F81030002B00F0B78030238DF83F
:100A4000323023780595002120220B918DF831203A
:100A5000934E0127002B00F09280252B254603D1D1
:100A600018E0252B00F0D78015F8013F002BF8D1B6
:100A7000B5EB040B00F0838022465B4649460398A1
:100A8000FFF792FF01307AD00B9B2A785B440B93DF
:100A9000002A74D000234FF0FF3201350693CDE9D0
:100AA00008338DF85B301C93079205E0069A07FA2D
:100AB00003F3134355460693AA4605221AF8011B71
:100AC000304604F0A5FFD346831B0028EED1069BD9
:100AD000D90644BF20228DF85B2029781A0744BF2D
:100AE0002B228DF85B202A296DD0A1F13003092B30
:100AF00000F2C580099A02E055460AF1010A9AF807
:100B0000001002EB820203EB4202A1F13003092B39
:100B1000D346F1D905F1020A09922E295FD0614C22
:100B20000322204604F074FF002871D0001B069AAF
:100B3000402404FA00F0024306920AF101049AF8F4
:100B4000001059488DF83010062204F061FF00288B
:100B500073D0564B002B63D005AB00934A46544BE1
:100B6000039806A900F06EF98046B8F1FF3F06D061
:100B70000B9B43440B932378002B7FF46EAFB9F8A3
:100B80000C305B0618D40B981FB0BDE8F08F04F052
:100B9000C3F8404B99457FF43DAF039BD3F80490D5
:100BA000B9F80C3018073FF544AF4946039802F0F6
:100BB000A3FE00283FF442AF4FF0FF30E4E7039B71
:100BC000D3F8089030E7059A11680432002905929D
:100BD0002DDB099169782E2905F1020A9FD19BF836
:100BE00001102A2933D1059B9BF802101A6807923D
:100BF0000433002A05930BF102000BF1030A40DBDA
:100C0000284C83460322204604F002FF00288DD1A1
:100C10005446DA4693E7B5EB040B3FF43BAF2BE7C2
:100C2000059B073323F0070308330593A0E74942E8
:100C300043F0020309910693CCE705AB00934A46C3
:100C40001B4B039806A900F031FC80468DE7A1F10B
:100C5000300000220928079201D917E0DA469AF8F5
:100C6000011002EB820200EB4202A1F130000928E0
:100C70000AF1010BF2D90AF1020A07924FE7AB46DB
:100C80004BE74FF0FF328346079248E7D3460AF11D
:100C9000010A44E7344B0208144B0208F44A0208E4
:100CA000807B0208887B02088C7B0208450E0008C6
:100CB000A909000810B4044C13460A4601462068EE
:100CC0005DF8044BFFF796BE040000202DE9F047C5
:100CD00057EC106B84B0002F894692461946DDE927
:100CE0000D544EDB00230B70662D32D0462D30D0D4
:100CF00025F02003452B08BF09F1010903AA02AB27
:100D0000CDE9003202210C9B4A4647EC106B02F001
:100D100019FF672D80464CD11AF0010F39D008EB2E
:100D20000905304639460022002306F0CDFF30BBCE
:100D3000039B9D4206D93022581C03901A70039BD6
:100D4000AB42F9D3A3EB08034046236004B0BDE8EF
:100D5000F08703AA02ABCDE9003203210C9B4A467F
:100D600047EC106B02F0EEFE804600EB090598F8A8
:100D70000030302B0FD00C9B1B681D44D1E72B4655
:100D8000E0E707F100434FF02D0C1F4681F800C04B
:100D9000AAE7039BD6E7002200233046394606F037
:100DA00093FF0028E7D10C9AC9F1010313601D4499
:100DB000B7E7472DB0D0B2E7F0B400290446BABF78
:100DC00049422D232B23092904F8022B82B04370BA
:100DD0002CDD0DF107063246194F00E01A46A7FB3D
:100DE0000153DB0803EB8305A1EB450101F130055D
:100DF0001946092902F8015C02F1FF33EEDC3031BB
:100E0000023AC9B2964203F8011C0BD91A4625468C
:100E100001E012F8011B05F8011B9642F9D102AA64
:100E2000D31A1C44201A02B0F0BC70473031302372
:100E3000041DC1708370201A02B0F0BC704700BF5F
:100E4000CDCCCCCC2DE9F04F8DB00C46DDF85880E0
:100E500016461F46054604F01FFD03680693184614
:100E600001F0EEFA00230A93D8F800300790073318
:100E700023F0070393ED007B08338DED047BD4F85A
:100E800000A094F818B0C8F80030DDE9042323F07E
:100E900000499046104684ED127B49464FF0FF32E0
:100EA000AC4B06F043FF002853D1404649464FF073
:100EB000FF32A84B06F01CFF00284AD1DDE90401EF
:100EC0000022002306F00AFF002840F08A80A24892
:100ED000A2492AF0040203232260BBF1470F8CBF12
:100EE0008046884623614FF00009009733460BAADD
:100EF0002146284600F04CFA013025D023685805D9
:100F000000F1C9802369424631462846B84701307E
:100F10001AD022680B98E36892075CD51A1A002A47
:100F200059DD04F119094FF0000804E0E3680B985B
:100F30001A1A42454FDD01234A4631462846B84732
:100F4000013008F10108F1D14FF0FF300DB0BDE8DC
:100F5000F08FDDE9040102460B4606F0E7FE0028AB
:100F600068D16168481C4AF4806200F09180BBF14E
:100F7000670F3AD0BBF1470F37D0002322600AA891
:100F8000039309AB02900093CDF804B00DF1230355
:100F90009DED040B2846FFF799FE099B8046BBF1A7
:100FA000650F63D9BBF1660F00F0AE800A9A9A42D2
:100FB00000F3B48022682361D20701D55A1C226154
:100FC000A3654FF000099DF82330002B8DD02D2311
:100FD00084F8433089E79842B8BF18460DB0BDE8A1
:100FE000F08F2D2384F8433071E7002940F09E8074
:100FF00001216160002322600AA8039309AB0290DB
:101000000093CDF804B00DF123039DED040B2846A9
:10101000FFF75CFEBBF1670F8046099B02D0BBF176
:10102000470FBCD1D91C1ADB62689A4217DB4FF01C
:10103000670BBBE7059B4A494A4A002BBCBF2D23DF
:1010400084F843302AF0040323600323BBF1470FE5
:101050008CBF8846904623614FF0000945E7ABF10D
:10106000020B5FFA8BFBBBF1650F9BD8013B194666
:101070005A4604F150000993FFF79EFE0A9A13188E
:10108000012A8146236140F3A480013323619AE75A
:1010900006216160AEE7BBF1650F67D9002200232E
:1010A000D4E9120106F010FE002800F09F80012311
:1010B0002D4A31462846B84701303FF445AFDDE9B7
:1010C00009239A4280F2D480DDE90623314628467E
:1010D000B84701303FF438AF0A9B012B7FF719AFB7
:1010E00004F11A094FF0000804E00A9B013B434554
:1010F0007FF70FAF01234A4631462846B8470130F3
:1011000008F10108F1D11FE7002B626866DD236159
:10111000002A59D001321A44226151E7002BD4BF72
:10112000C3F1020101210A44226149E70023226040
:101130000AA8039309AB02900093CDF804B00DF117
:1011400023039DED040B2846FFF7C0FD099B804655
:1011500068E700BFFFFFEF7F987B0208947B0208DF
:10116000A07B02089C7B0208745E02080A9A012A8E
:1011700040F383800123424631462846B847013078
:101180003FF4E2AEDDE9062331462846B847013098
:1011900008F101083FF4D8AEDDF828A000220023B2
:1011A000D4E912010AF1FF3B06F08EFD002849D177
:1011B0005B46424631462846B84701303FF4C4AE4C
:1011C0004B4604F150029FE62168C8077FF5F8AE50
:1011D000A0E72268D2077FF5F6AE56E722B921686C
:1011E000C90701D401229FE702329DE7099B002B2A
:1011F0004CDC0123654A31462846B84701303FF4AC
:10120000A3AE099B002B70D0DDE9062331462846AA
:10121000B84701303FF498AE099B002B33DA04F154
:101220001A0A4FF0000903E0099B5B424B452ADD97
:101230000123524631462846B847013009F10109D9
:10124000F2D181E6BAF1010FBADD04F11A0A4FF0CA
:10125000000803E00A9B013B4345B1DD01235246F0
:1012600031462846B847013008F10108F2D16BE653
:101270002268D1077FF54EAE26E7D9073FF57AAF52
:101280004246012396E742460A9B3DE60A9AA36D31
:101290009A42A8BF1A46002A924608DD13463146F4
:1012A00042462846B84701303FF44EAEA36D2AEAC5
:1012B000EA7211469A1A002A994621DD04F11A0BA6
:1012C000C1464FF0000AA0460C4604E0D8F858305A
:1012D0001A1B524511DD01235A4631462846B847AC
:1012E00001300AF1010AF1D12EE60A9B002B8BD1C5
:1012F0002268D3077FF50EAE86E74446C846994676
:10130000DDE909239A42C8443BDADDE90623314688
:101310002846B84701303FF417AEDDE90923A3EBB7
:101320000909991A8945A8BF8946B9F1000F09DD55
:1013300042464B4631462846B84701303FF404AE9A
:10134000DDE9092329EAE9789B1AA3EB0803002BBE
:101350007FF7DFAD04F11A0A4FF0000907E0DDE97D
:1013600009239B1AA3EB08034B457FF7D2AD01235A
:10137000524631462846B847013009F10109EED1FD
:10138000E2E52168C807C0D4C9E700BF745E02085F
:101390002DE9F0470C4691460A698968DDF82080FE
:1013A0008A42B8BF0A46C9F8002094F8431006469E
:1013B0001F4611B10132C9F80020236899065FD594
:1013C000D9F800200232C9F80020236813F0060F74
:1013D00019461DD1E1688A1A002AD8BF194617DDBF
:1013E00004F1190A002505E0E368D9F800209B1AEA
:1013F000AB420CDD0123524639463046C04701302E
:1014000005F10105F0D14FF0FF30BDE8F08721680C
:1014100094F84330003318BF01238A060AD5E11837
:101420005A1C302081F84300224494F8451082F879
:101430004310023304F1430239463046C0470130BD
:10144000E1D02368D9F80050216903F00603042B8A
:10145000D4E902201AD08A421FDD4FF00009521A47
:1014600091441A34002501E04D4516D0012322464F
:1014700039463046C047013005F10105F4D1C2E7D5
:1014800013F0060F0CD1D9F80020A3E7401B8A42C5
:1014900020EAE079E3DC0028E3DC0020BDE8F08707
:1014A00094F84330003318BF0123C3E72DE9F0431C
:1014B0000C46097E85B06E2906460C9D1746984657
:1014C00004F1430C4AD00FD8632900F0FF8000F2EA
:1014D000BF8000294ED0582940F0E18084F84510A3
:1014E0002268DFF844E212E0732900F0C6807AD85F
:1014F0006F2900F0DB80702940F0D180206840F037
:10150000200222607823DFF824E284F845302B683B
:10151000191D1B682960150602D4500648BF9BB2EE
:10152000D10744BF42F020022260002B6DD1D4E9E4
:10153000001284F84330002A21F020032360A260C7
:101540007EDB21F0240121601021002A79D165463B
:1015500008294ED0ACEB050323610EE02B6822680E
:101560006169181D286015061B6802D4500600F139
:10157000C7801960002365462361CDF800803B4693
:1015800003AA21463046FFF703FF013020D02A4648
:10159000236939463046C047013019D02268039884
:1015A000E368920719D51A1A002A16DD04F1190901
:1015B000002504E0E36803981A1AAA420DDD01230E
:1015C0004A4639463046C047013005F10105F1D1A0
:1015D0004FF0FF3005B0BDE8F0839842B8BF184621
:1015E00005B0BDE8F083752960D0782957D122680D
:1015F00088E72368DB07ADD5626823699A42A9DCD6
:10160000302305F8013C013DA4E71021002284F8B5
:1016100043206268A260002A2CDB206820F00400CE
:101620002060002B91D06546B3FBF1F201FB123034
:1016300013461EF8002005F8012D002BF4D187E792
:1016400010219EF8003084F8423004F142057FE713
:10165000642901D0692922D120682B68010603F191
:10166000040245D51B682A60002B4BDBDFF8B8E08D
:101670000A21CEE7002BD6D1E3E72B686268191D5B
:1016800029601D680021284604F0C2F9002848D0CE
:10169000401B60602061002384F843306DE7012324
:1016A00084F84210236104F14205F4E720682B68B6
:1016B00010F0800F03F1040213D01B682A606F2919
:1016C0000CBF08210A21DFF860E09FE72B681A6849
:1016D000191D0123296084F84220236104F1420589
:1016E000D9E7400653BF1B682A601B882A60E6E7DB
:1016F000410653BF1B682A60B3F900302A60B3E784
:10170000198037E76268A2602D21002A84F843100F
:10171000C3F10003DFF810E04FF00A01BFF67EAF1F
:1017200081E76068B6E700BFC44D0208A47B0208E9
:101730002DE9F04F2DED028B0646886887B00C46E8
:10174000411EB1F5AE7F1546059340F2A0816FF4BE
:10175000AE7740F25D13C2190392A3601846236866
:10176000274643F4F06347F81C3B4FF0000BB846A4
:10177000D946CDF810B0CDF808B0DA46CDF804B0AF
:101780002B681A78A2F12B034E2B74D8DFE813F0E4
:10179000FA007300FA00F00073004F00530053008A
:1017A0005300530053005300530053005300730081
:1017B0007300730073007300730073007101730092
:1017C0007300730054014D01730073002401730012
:1017D00073007300730010017300730073007300D3
:1017E000730009017300730073007300020173003A
:1017F0007300730073007300730073007101730052
:101800007300730054014D017300730024017300D1
:101810007300730073001001730073007300730092
:1018200073000901730073007300730002012368E1
:10183000D90500F1428119EB0B0F1CD1236823F469
:10184000C073236088F80020A06808F101086B6865
:101850002269013B01380132002BA06022616B60DC
:1018600000F30E81D4F8803129463046984710B9EC
:10187000A068002884D1BAF1000F40F00B8109F173
:10188000FF39B9F1010F40F2BA800BF1FF33062B9B
:101890001AD8BBF1020F40F23081BBF1030F13D015
:1018A000ABF104095FFA89F96FEA0909C144D4F878
:1018B0007C3118F8011D2A46304698472369C845EF
:1018C00003F1FF332361F2D12368D8051A4621D5ED
:1018D000590500F12281226918F8011CD4F87C31E5
:1018E000013A6529226108F1FF3200F06281452941
:1018F00000F05F812A46304698472269D4F87C314F
:1019000018F8021C013A2261A8F102082A46304662
:101910009847226812F0100540F0E88088F80050DF
:10192000236803F4C063B3F5806F00F02581029B48
:10193000002B40F0408139460022304601F0EEFD98
:101940002368B0EE408AF0EE608A9A07059940F16C
:10195000FE800B681A1D0A601B6883ED000BE368AC
:1019600028460133E36007B0BDEC028BBDE8F08F81
:10197000236899057FF57FAF23F420732360CDF8AA
:1019800004A05FE7236818067FF575AF23F0800396
:10199000236057E7BBF1070F7FF46DAF4FF0080BE3
:1019A00050E7BBF1060F7FF466AF4FF0070B49E736
:1019B000B9F1000F7BD1BAF1000F40F08B802368A2
:1019C00003F4E061B1F5E06F40F0848023F4F0634C
:1019D00023604FF0010935E7BBF1000F5FD1BAF189
:1019E000000F57D1236803F4E061B1F5E06F00F018
:1019F000D58009F1FF39B9F1010F3FF666AF4745D0
:101A00000CD2D4F87C3118F8011D2A46304698478C
:101A10002369474503F1FF332361F2D101252846AD
:101A200007B0BDEC028BBDE8F08FBBF1020F7FF475
:101A300022AF4FF0030B05E7236803F4A061B1F573
:101A4000806F06D058057FF516AFBAF1000F3FF44E
:101A500016AF990505D40199CDF81080AAEB0101C4
:101A6000029123F4F06343F4C07323604FF0000A43
:101A7000E8E6B9F1010F7FF4FEAE4FF00209E1E6AE
:101A80002B6801332B6000287FF47AAEF3E6002345
:101A9000039364E6236823F480732360EFE6BBF1CD
:101AA000030F4BD10BF1010B5FFA8BFBCAE6B9F1C7
:101AB000020F0FD14FF00309C4E623F08003236027
:101AC000039B0AF1010A002B3FF4C1AE013B0393D3
:101AD0000130BCE6BBF1010FE4D0BBF1040F7FF491
:101AE000CAAE0BF1010B5FFA8BFBABE60025284673
:101AF00007B0BDEC028BBDE8F08F47458ED2D4F81D
:101B00007C3118F8011D2A4630469847236947451D
:101B100003F1FF332361F2D180E7B8457FF67EAF52
:101B2000D4F87C3118F8011D2A46304698472369BD
:101B3000474503F1FF332361F2D16FE7BBF1050F96
:101B40007FF499AE0BF1010B5FFA8BFB7AE60E681E
:101B50005B0706F1040227D4059B51EC100B1A60B9
:101B600053EC102B366806F0E1F880BB51EC180BF3
:101B700006F03AF93060F2E6019BAAEB03035A4201
:101B8000002B3FF4D8AE04F26F13984528BF04F53C
:101B9000B7784046114900F017FACCE623F4F06319
:101BA00023604FF0010B4DE60A60336883ED000BB4
:101BB000D5E69046AAE604990A232A460131304622
:101BC00001F00AFE029BDDF81080C21ADBE7044830
:101BD00000F08EF886ED000AC1E600BFB87B02086F
:101BE000986C020883692DE9F04180460E46F3B1F6
:101BF00084682F4B9C4228D02E4B9C4231D02E4BD8
:101C00009C4208BFD8F80C40A3891B0722D5236942
:101C100003B3013EA36816F8015F013BA3609DB3C7
:101C2000002B21DB23685A1C22601D70F2E703F0B1
:101C300073F8D8F81830D8F80840002BD9D14046AE
:101C400003F06AF81A4B9C42D6D1D8F80440A38915
:101C50001B07DCD42146404601F04EFE0028D8D0B8
:101C60000EE0D8F80840CFE7A769BB4222462946D4
:101C7000404601DB0A2DD5D101F0C8FD0130C9D1A4
:101C80004FF0FF30BDE8F081002B07DB23680A220C
:101C9000591C21601A701046BDE8F081224640466A
:101CA0000A2101F0B3FD0130EAD00A20BDE8F0813D
:101CB000344B0208144B0208F44A0208024B014656
:101CC0001868FFF78FBF00BF0400002038B5074C2D
:101CD000002305460846236011F01CF8431C00D081
:101CE00038BD2368002BFBD02B6038BD8C4500200D
:101CF0009FED010A704700BF0000C07F10B5802132
:101D00000446FEF7CFFD606440B1031F00227C3023
:101D100043F8042F8342FBD1002010BD4FF0FF3069
:101D200010BD00BF436C0BB100207047E6E700BF59
:101D30001F2970B5054608D8436C16460C464BB1B2
:101D400053F8240043F8246070BD162202604FF05F
:101D5000FF3070BDFFF7D2FF08B96B6CF0E74FF0B2
:101D6000FF3070BD1F2938B521D8436C05460C469D
:101D70006BB153F8212052B1012A12D0511C12D05C
:101D80000025204643F824509047284638BD284671
:101D900000F070F8224601462846BDE8384000F0C1
:101DA00055B8002038BD16230360012038BD162326
:101DB00003604FF0FF3038BD1F2921D838B5436C80
:101DC00005460C4683B153F8242003EB84034AB143
:101DD000511C0ED0012A11D0002520461D609047CD
:101DE000284638BD012038BDFFF788FF18B96B6C55
:101DF000E9E7022038BD4FF0FF3038BD032038BD81
:101E00004FF0FF30704700BF024B01461868FFF7E4
:101E1000A9BF00BF04000020024B0A460146186813
:101E2000FFF786BF04000020034B1868436C0BB11A
:101E30000020704762E700BF04000020024B01460B
:101E40001868FFF7B9BF00BF0400002038B50B4683
:101E5000074C0546114618460023236007F0C4F9D5
:101E6000431C00D038BD2368002BFBD02B6038BD4D
:101E70008C45002007F0A8B908B430B5002A9CB002
:101E8000044636DB4FF4027302910691ADF814302C
:101E900020A918D0013A0B460492079201911F9A8B
:101EA0004FF6FF7502A9ADF8165004F01FFC421C56
:101EB00001DA8B232360029B00221A701CB0BDE85C
:101EC000304001B070470B460492079201914FF6E3
:101ED000FF751F9AADF8165002A904F007FC431CC9
:101EE00004DB1CB0BDE8304001B070478B23236099
:101EF000F7E78B2202604FF0FF30F2E70CB430B509
:101F0000214B00299DB01C6838DB4FF4027302900E
:101F10000690ADF8143021A819D001390346209A53
:101F20000491079101904FF6FF7502A92046ADF884
:101F3000165004F0DBFB421C01DA8B232360029B6A
:101F400000221A701DB0BDE8304002B07047034651
:101F50000491079101904FF6FF75209AADF8165045
:101F600002A9204604F0C2FB431C04DB1DB0BDE8FF
:101F7000304002B070478B232360F7E78B23236048
:101F80004FF0FF30F2E700BF040000200CB470B542
:101F90009CB020AC0B4E54F8042B029123460691C2
:101FA0006FF0004502A901940795CDE9045604F0AD
:101FB0009DFB029B00221A701CB0BDE8704002B06D
:101FC000704700BF0802FFFF0EB430B59CB01FABD6
:101FD0000C4C0D4D53F8042B0193014602910691D0
:101FE000206802A96FF000440794CDE9044504F08D
:101FF0007DFB029B00221A701CB0BDE8304003B08C
:10200000704700BF040000200802FFFF0EB470B547
:102010009DB021AC4FF4017254F8045BADF814206C
:102020000290069000F00CFA0C4B019401462A46EF
:10203000039107910A4E18680B9623464FF6FF75D9
:10204000002402A90F941494ADF8165004F0E8FC93
:102050001DB0BDE8704003B0704700BF0400002011
:10206000DD2000080CB470B59CB020AC05464FF4E0
:102070000173084654F8046B02910691ADF81430D0
:1020800000F0DEF901463246234601940391002414
:1020900007912846074E0B964FF6FF7502A90F943D
:1020A0001494ADF8165004F0BBFC1CB0BDE87040B1
:1020B00002B07047DD20000810B50C46B1F90E10D3
:1020C00004F0D0FF002803DB636D0344636510BD9B
:1020D000A38923F48053A38110BD00BF0020704763
:1020E0002DE9F0411646B1F90C201F46D3050C46E8
:1020F0000546B1F90E1007D50022022303F0D4FBE8
:10210000B4F90C20B4F90E1022F48052A2813B469F
:1021100032462846BDE8F04101F0D8BB10B50C4668
:10212000B1F90E1003F0C0FBA389421C0EBF23F4CB
:10213000805343F480536065A38110BDB1F90E1044
:1021400001F05ABC00000000000000000000000088
:10215000000000000000000000000000000000007F
:10216000A2EB0300704700BF02780B78012A28BF5A
:102170009A42F5D16DE9044540EA0104CDE90267D0
:102180006FF0000C4FEA447212B380EA010414F0BD
:10219000070F6AD100F0070420F0070004F00305E0
:1021A00021F007014FEAC505F0E8042314F0040FFD
:1021B000F1E804670CFA05F462EA040266EA040630
:1021C0000AD063EA0403624667EA0407664603E04E
:1021D000F0E80423F1E8046782FA4CF582EA060489
:1021E000A4FA8CF46CBB83FA4CF583EA0705A5FAD4
:1021F0008CF595B950E9022351E9026782FA4CF552
:1022000082EA0604A4FA8CF483FA4CF583EA070503
:10221000A5FA8CF52543DBD09CB92DBAB5FA85F427
:1022200024F0070427FA04F1DDE9026723FA04F336
:1022300003F0FF0001F0FF01FDE80445A0EB010001
:10224000704724BAB4FA84F424F0070426FA04F19F
:10225000DDE9026722FA04F202F0FF0001F0FF015B
:10226000FDE80445A0EB0100704714F0030F3CD1DA
:1022700010F0030428D150F8082B51F8083B82FADB
:102280004CF582EA0305A5FA8CF55DB950F8042CEB
:1022900051F8043C82FA4CF582EA0305A5FA8CF564
:1022A000002DE8D02DBAB5FA85F424F0070423FAFE
:1022B00004F122FA04F202F0FF0001F0FF01FDE850
:1022C0000445A0EB010070474FEAC40420F003006E
:1022D00050F8082B21F0030151F8083B0CFA04F4E4
:1022E00062EA040263EA0403C9E710F003041AD0A7
:1022F000A1EB040120F00300E40750F8042B06D002
:102300000FD28B785FFAA2F4E41A06D12BB1CB7806
:102310005FFAB2F4E41A00D11BB920465DF8104B05
:10232000704701F1040150F8042BCC0721F00301A0
:1023300051F8043B48D824D222F07F4482FA4CF56D
:1023400094EA1325A5FA8CF50AD165B951F8043B36
:1023500084EA0204B4EB036F0ED150F8042BEBE7D0
:102360004FEA132355E035F07F454DD10878FDE85D
:102370000445C0F1000070474FEA126203F0FF030A
:1023800047E002EA1C4482FA4CF594EA1345A5FAA8
:102390008CF50AD165B951F8043B84EA0204B4EB28
:1023A000034F0CD150F8042BEBE74FEA134330E016
:1023B00015EA1C4528D10B884FEA124229E04FEA62
:1023C000124203EA1C4324E002F0FF0482FA4CF5B7
:1023D00094EA1365A5FA8CF50AD165B951F8043B66
:1023E00084EA0204B4EB032F09D150F8042BEBE785
:1023F0004FEA13630DE015F0FF0F05D10B684FEAAC
:10240000122223F07F4304E04FF00000FDE8044572
:10241000704712BA1BBA82FA4CF482EA0304A4FA97
:102420008CF5B5FA85F402FA04F203FA04F34FEAE4
:102430001260FDE80445A0EB136070470000000047
:1024400090F800F06DE9024520F007016FF0000CF4
:1024500010F0070491F820F040F049804FF000049C
:102460006FF00700D1E9002391F840F000F1080077
:1024700082FA4CF2A4FA8CF283FA4CF3A2FA8CF3AF
:102480004BBBD1E9022382FA4CF200F10800A4FA16
:102490008CF283FA4CF3A2FA8CF3E3B9D1E904236A
:1024A00082FA4CF200F10800A4FA8CF283FA4CF3A1
:1024B000A2FA8CF37BB9D1E9062301F1200182FA5B
:1024C0004CF200F10800A4FA8CF283FA4CF3A2FA61
:1024D0008CF3002BC6D0002A04BF04301A4612BA6F
:1024E000B2FA82F2FDE8024500EBD2007047D1E972
:1024F000002304F00305C4F100004FEAC50514F001
:10250000040F91F840F00CFA05F562EA05021CBFD1
:1025100063EA050362464FF00004A9E7002A41D0B0
:1025200040EA010313F00303F0B425D1032A23D9B1
:1025300004680D68AC421FD1043A35D0A4F10135CE
:1025400025EA040414F0803F31D1071D0D1D0DE074
:1025500057F8043B0E68A3F10134B34224EA0304A4
:102560000AD1043A20D014F0803F1DD1032A294615
:10257000384605F10405EBD803780C789C4202F14B
:10258000FF320CD182B114B90EE06AB17BB110F800
:10259000013F11F8014FA34202F1FF32F5D0181BA1
:1025A000F0BC7047104670470020F0BC70471846DA
:1025B000F6E700BF000000002DE9F04F914CA3B0FA
:1025C0002468079488468146002120461D46002441
:1025D0000023CDE9043406921E91FFF731FFCDF8B8
:1025E0007480834643461A4613F8014B2D2C00F2A3
:1025F000F080DFE814F05C00EE00EE00EE00EE008C
:10260000EE00EE00EE00EE00C100C100C100C1000E
:10261000C100EE00EE00EE00EE00EE00EE00EE0077
:10262000EE00EE00EE00EE00EE00EE00EE00EE003A
:10263000EE00EE00EE00C100EE00EE00EE00EE0057
:10264000EE00EE00EE00EE00EE00EE006A00EE009E
:10265000BE0007995A465046FFF760FF054600281E
:1026600040F03E831D9B03EB0B021D9213F80B40C1
:10267000302C2B4606D101321D921478302C03F1F8
:102680000103F8D0A4F13102082A40F2CA854FF0C4
:10269000000B652C59465E465F464FF0010E4AD14D
:1026A000002B40F03481089A002A40F03081069BCC
:1026B00013B1069BC3F800804FF0000A4FF0000BE7
:1026C0004BEC10AB23B0BDE8F08F00230A9302F16E
:1026D000010ACDF874A05478002CE8D0302C7DD0BD
:1026E00000230893A4F13003DAB2092AB1D80026F6
:1026F00037463546504601301D90082D047807EBCB
:102700008702CABF06EB860603EB420703EB4606C9
:10271000A4F13003DAB2092A05F10105EBD90799D2
:102720005A46FFF7FBFE014640B3002319469E467A
:10273000AB46652C68D0452C66D00022002D40F0B9
:10274000B5801BB9089B002B00F073824FF0000A84
:102750004FF0000B069A0AB11D9B13600A9B002BD9
:10276000AED00BF100439B464BEC10AB23B0BDE861
:10277000F08F01230A93AAE71D9334E71D9B03EB17
:102780000B021D9213F80B40AB460346A4F1300038
:10279000092800F221825A1C8646DDF874C0002800
:1027A00000F0AA86012A114400F0A8862B4404E018
:1027B00067009A42154600F09584082D05F1010244
:1027C00007EB8704F4DD102ADCBF06EB86067600F3
:1027D000EFE70023302C92460A9381D19AF801301A
:1027E000582B00F0FC81782B00F0F981534601331F
:1027F0001D931C78302CFAD09A46002CA6D00123C9
:1028000008936FE7544C0208002D3FF449AFDDF800
:10281000748008F101021D9298F801402B2C00F001
:10282000FD812D2C00F0028200220792A4F13002DB
:10283000092A6ED8302C05D11D9A01321D921478C8
:10284000302CFAD0A4F13102082A3FF676AF1D9A57
:102850000E92501C303C1D900B945478A4F1300C17
:10286000BCF1090F0FD80B9A01301D9002EB8202C8
:1028700004EB42020478A4F1300CBCF1090FA2F180
:102880003002F1D90B920E9A801A082800F33D8489
:102890000B9A44F61F608242A8BF024607980028A0
:1028A0003FF44CAF5242002D3FF44BAF531A384621
:1028B0000B9304F027FFBBF1000F08BFAB46102DB0
:1028C0002C46A8BF1024092DCDE9040125DC0B9B63
:1028D000002B19D00B9B40F39384162B00F3B2848A
:1028E000394901EBC301D1E90001DDE9042304F01A
:1028F00083FF82468B462DE7344B0593250742BF65
:10290000059B43F000430593DDE904AB22E7002576
:102910007DE7CDF87480002210E72B4B03EBC40356
:1029200053E9122304F068FFCDE90401304604F0B6
:10293000E9FE02460B46DDE9040104F0A7FD0F2D78
:10294000CDE90401C3DD0B9B2C1B1C44002C40F380
:10295000228314F00F030AD01B4901EBC301D1E914
:102960000001DDE9042304F047FFCDE9040134F060
:102970000F040DD0B4F59A7F40F30184134B0593F7
:10298000002222230492DDE904ABC9F80030E1E61D
:102990000023079300972B465A465146484603F0BA
:1029A0007DF91290002800F0A4810B9A0021002AE2
:1029B000C2F10003A8BF0B460E9322EAE2730F4652
:1029C00013938B46C9E000BF704C02080000F07FF3
:1029D000D21A1F2AA4EB020400F34B820123934076
:1029E0000C93002310932544079B3444A6421D44B6
:1029F0003346A8BF2346AB42A8BF2B46002B02DDBF
:102A0000E41AED1AF61A0E9B002B40F0C381002C3D
:102A100000F3D9810B9B002B00F3FD81002D00F307
:102A20000682002E08DD39463246484603F0DEFABB
:102A30000746002800F0F88142461E99484603F0F8
:102A400047FB8346002800F0EF810023C268C36083
:102A500039460F9203F020FB0028C0F26F84059ED8
:102A600000F032843946584603F092FC55EC104B86
:102A700000224FF0804310EE100A294605F038F985
:102A8000002800F0DE810F9B002B00F0FA819FED03
:102A9000B47BB74C0023CDE90C348DED107BB54DE4
:102AA000B54B06EA05049C4200F01482079B53B321
:102AB000B4F1D46F27D8DDE91056ABA3D3E90023D6
:102AC0002846314605F014F9C0B12846314605F0D4
:102AD0006BF9002800F0D78304F014FECDE9100153
:102AE0000F9B002B40F0CA83DDE9101202F1004376
:102AF00018911993DDE91823CDE90C230D9B03F1FF
:102B0000D6631B1B0D939DED080BDDE90C5603F0FE
:102B100055FB284653EC102B314604F06DFEDDE9E1
:102B2000082304F0B3FCCDE904010D46079B23B94B
:102B3000904B2B409C4200F009821E99484603F0BE
:102B400053F84146484603F04FF83946484603F0EB
:102B50004BF85946484603F047F8129C48466168CE
:102B600003F00EF88046002800F05E8122699DED9A
:102B7000047B0232920004F10C010C308DED087BD5
:102B8000FDF758FD9DED080B20AA1FA9484603F04C
:102B90009DFB1E90002800F01F810121484603F094
:102BA00019F90746002800F03F811F9B002BC0F257
:102BB0005C810E9A139D9E180799209C6F4A5B1AA0
:102BC0002344013B9342C4F13604FFF601AF0023D6
:102BD000109301230C9306E74FF0010EA9E50A9A22
:102BE00002951EABCDE900321DA91FAB644A4846D1
:102BF00002F0D8FA10F0070504463FF4A7AD062D01
:102C000040F08782069A0AF10103002A3FF454AD8E
:102C100013604FF0000A4FF0000B51E500220792BD
:102C200008F102021D9298F80240FFE50122079286
:102C3000F6E7BEF1000F7FF43AAD493C252C3FF694
:102C400036AD01A353F824F02B2D0008AF26000861
:102C5000AF260008AF260008AF260008072D0008A1
:102C6000AF260008AF260008AF260008AF260008F0
:102C7000AF260008AF260008AF260008AF260008E0
:102C8000AF260008AF260008AF260008AF260008D0
:102C9000AF260008AF260008AF260008AF260008C0
:102CA000AF260008AF260008AF260008AF260008B0
:102CB000AF260008AF260008AF260008AF260008A0
:102CC000AF260008AF2600082B2D0008AF2600080D
:102CD000AF260008AF260008AF260008072D000821
:102CE0004FF0000B5E465F465B4659465D46DE464A
:102CF0001FE5204B0593129B04932223DDE904ABCF
:102D0000C9F8003026E51DA81E4902F0DBFC0028AA
:102D10003FF4CDAC1D9B1B78282B00F067831A482D
:102D200004F0B6F95BEC10AB14E51DA8174902F0EE
:102D3000C9FC00283FF4BBAC1D9B1549013B1DA8F5
:102D40001D9302F0BFFC10B91D9B01331D93094C6C
:102D50000023CDE90434DDE904ABFBE4AFF30080EC
:102D6000000000000000F03F0000C0FFFFFFDF4157
:102D70000000F03F0000F07F0000E07F02FCFFFF5A
:102D8000A0490208CC7B0208986C0208C07B0208AC
:102D9000C47B020839461A46484603F0CBF807467A
:102DA000002841D001461E9A484603F01DF800282D
:102DB0003AD00F901E99484602F016FF0F9B1E93C3
:102DC000002C7FF727AE22461E99484603F00EF9E5
:102DD0001E9000287FF41EAE5C46B74B0593002280
:102DE0000492DDE904AB2223C9F8003001464846CD
:102DF00002F0FAFE4146484602F0F6FE39464846E1
:102E000002F0F2FE1299484602F0EEFE21464846D4
:102E100002F0EAFE9EE44146139A484603F08AF81F
:102E2000804600287FF4FAAD5C461E98D5E74146FF
:102E30002A46484603F0DAF8804600287FF4F1ADD0
:102E4000F2E79E4B20462946002204F0D5FC0F9B5A
:102E5000CDE91001002B38D101F1004314901593F6
:102E6000DDE91434CDE90C3419E6139A0E9ED51A17
:102E7000A2E6934AD31A012202FA03F310930C92AA
:102E8000B1E5049B002B40F0F480C6F31303002B44
:102E900053D100228B4B2046294604F01FFF002807
:102EA00040F009820022854B2046294604F0A4FC0C
:102EB0000A460146CDE9101202F100431A901B9315
:102EC000DDE91A34CDE90C34E9E59DED107B8DED9B
:102ED000147BC5E7A6F1547305939DED047BDDE9F2
:102EE0000C01B0EE470AF0EE670ACDE90C0103F0E1
:102EF00065F9DDE90C0153EC102B04F07DFCDDE9F4
:102F0000042304F0C3FA01EA05030A46CDE90401EB
:102F1000DDE90801DFF8C0C105460E466345CDE98D
:102F2000165640F2DB80684B994200F0B181664949
:102F30004FF0FF33CDE90431FFE59FED577B634C44
:102F40000023CDE90C348DED107BA8E5DDE91001FF
:102F500005F002F804F022FC0B460246DDE9100100
:102F600004F092FA0F9BCDE90801002B6DD1049B70
:102F7000002B6AD1C5F31305002D66D148A3D3E910
:102F8000002304F0ABFE00283FF4D7AD5C461E984A
:102F9000DDE904AB2AE73FF4FBAC644214F00F0216
:102FA0000AD04B4B03EBC203DDE90401D3E9002354
:102FB00004F04CFDCDE9040124113FF4E9AC1F2CD1
:102FC0003ADC14F01003079340F00782002C40F322
:102FD0000A82DDE904013F4E0023E20704D5D6E969
:102FE000002304F009FC0123641006F10806F4D163
:102FF000002B40F08C82079B002B00F0F481DDE970
:103000000412C2F30A53C3F16B03002B11460ADD0D
:103010001F2B40F361820022342B049240F3648220
:103020004FF05C73059300220023DDE9040104F0F6
:103030004BFE00283FF4AEAC2223C9F800304FF01D
:10304000000A4FF0000BFFF785BB17A3D3E900235D
:10305000DDE9080104F042FE002897D1DDE908010E
:1030600013A3D3E9002304F057FE00283FF465AD15
:103070008CE7049B012B7FF460AF002E7FF45DAFE3
:103080005C462223C9F800301E984FF0000A4FF02A
:10309000000BABE6AFF30080000000000000F03F43
:1030A0009535A094FFFFCF3F9535A094FFFFDF3FFC
:1030B00035E5AF350000E03F0000F07F0000E03F65
:1030C000E2FBFFFF0000F03FFFFFEF7F0000F0BFDB
:1030D000704C0208C8490208FFFF9F7C02F154753A
:1030E000059523E5551C082A40F3A680102D00F312
:1030F000E08006EB860600EB460600230CF1010299
:103100001D929CF80140FFF741BB44F61F62FFF798
:10311000C5BB1E9A3AB1352120A803F089F948466B
:103120001E9902F061FD013D042D3FF6E7AB01A3BE
:1031300053F825F06531000859310008F9280008D6
:1031400049310008653100084FF0FF336FF0004649
:10315000CDE90436FFF7D2BB209B0493219B059356
:10316000FFF7CCBBDDE920131F9A049102F2334232
:1031700023F4801343EA02530593FFF7BFBB2411E6
:10318000012CAB4B40F31A81DDE904011E46079385
:103190000023984614F0010F08F101084FEA640477
:1031A00004D0D6E9002304F027FB0123012C06F10B
:1031B0000806EFD1002B40F0A781059B9D4EA3F19F
:1031C00054730593079B03EBC808D8E90001DDE9B8
:1031D000042304F011FB984A01EA0203B342CDE94B
:1031E00004015CD8A2F15872934240F2E080934B04
:1031F0000593002307934FF0FF330493FFF7CABBF7
:1032000013F11602FFF69FAB8D4AA2EBC302DDE974
:103210000401D2E9002304F019FC82468B46FFF733
:1032200099BADDF874A04FF0000BA4F1300E591CD0
:10323000D4465F465E46012507EB87070EEB47073E
:1032400000235BE70B9EC5F12503B342FFF67BAB82
:103250007B4CC5F10F0504EBC501751BDDE90423AB
:10326000D1E9000104EBC50404F0C6FAD4E9002357
:1032700004F0C2FA82468B46FFF76CBA9DED107BD4
:103280008DED187B36E49FED647B8DED107B27E49C
:10329000DDF820A0BAF1FF3F7FF449AEC4E500237A
:1032A000049305922223DDE904ABC9F80030FFF74F
:1032B00051BA002322E79FED5A7B8DED1A7B9FEDDB
:1032C0005A7B8DED107BFBE50F995E4A5C463046DC
:1032D000DDE908ABC6F31303002973D0934200F075
:1032E000B780109B002B73D0034210D00F9B079A1E
:1032F000DDE90401002B00F0CB8021F0C8FA024682
:103300000B465046594604F0C1F882468B46079B4F
:1033100093B14D4A0023CDE9163250465946DDE9B6
:10332000162304F069FA82468B4629B920B9222374
:103330001E98C9F8003059E51E9857E50F9B58466E
:103340005C46DDE908AB002BE1D1DDE90412002980
:10335000DDD1C2F31303002BD9D122F000431B0DA2
:103360001B05B3F1D66FD2D9436913B90369012B99
:10337000CDDD21460122484602F038FE394604469A
:1033800002F08AFE0028C2DDDDE90401079B0A463F
:10339000002B00F0928021F000431B0D1B05B3F1C0
:1033A000D66F00F38A80B3F15C7FB2DC69E601F18D
:1033B0005473059300230793FFF7ECBA07934FF07C
:1033C0000008FAE6002B8CD1049B002B89D1DBE7A7
:1033D0000C9B049A13429AD088E76A23002C079327
:1033E0003FF7F7AD0BE6002307931CE61DA820AAC4
:1033F000164902F07FF905287FF491AC219B43F038
:10340000FF4343F4E0030593209B0493DDE904AB01
:10341000FFF7A0B9AFF30080000000000000F03F0C
:10342000000000000000E0BF000000000000E03FDE
:10343000604D02080000A07C0000F07FFFFFEF7FDE
:10344000704C0208FFFF0F0000005039B449020819
:10345000079B049973B32F4B3340B3F1D46F29D832
:103460001B0DC3F16B034FF0FF3202FA03F39942D5
:103470007FF437AF284B984243D0264B02461A4080
:1034800002F58013059300230493DDE904AB3EE7C6
:1034900021F0FDF902460B465046594603F0F4FF71
:1034A0000022002382468B4604F00EFC00287FF4A5
:1034B000E8AD2CE74FF0FF33D9E7164B1340A3F5E7
:1034C00080136FEA13536FEA035305934FF0FF33F2
:1034D0000493DDE904AB1AE74FF0FF3202FA03F37D
:1034E000049A1A4004929EE5203B4FF0FF3202FA04
:1034F00003F30B40059396E51346FFE52A46013595
:10350000F1E50131B9D190E4CDE9040155E6CDE909
:10351000040170E50000F07FFFFFEF7F014BFFF734
:103520004BB800BF6C00002010B4044C13460A4690
:10353000014620685DF8044BFFF73EB80400002008
:1035400010B4044C044B0A46014620685DF8044B55
:10355000FFF732B8040000206C0000202DE9F04194
:10356000DFF8A88013462DED028B0A460146D8F8F5
:103570000000FFF721F855EC104B10EE102A2B46F7
:1035800010EE100A294604F0D1FB50BB2046294614
:1035900004F02AFC08EE100ADFED197AB0EEC87AC2
:1035A000B4EE677AF1EE10FA15DD25F000472046FB
:1035B00039464FF0FF32134B04F0B8FB38B92046C0
:1035C00039464FF0FF320F4B04F092FB18B1D8F898
:1035D000003022221A60B0EE480ABDEC028BBDE832
:1035E000F081002D084804DAFEF782FBB1EE408A34
:1035F000F1E7BDEC028BBDE8F041FEF779BB00BFFF
:10360000FFFF7F7FFFFFEF7F986C02080400002020
:103610002DE9F041DFF8AC80264B0A462DED028BF8
:103620000146D8F80000FEF7C7FF55EC104B10EE2E
:10363000102A2B4610EE100A294604F077FB50BBE7
:103640002046294604F0D0FB08EE100ADFED1A7A76
:10365000B0EEC87AB4EE677AF1EE10FA15DD25F017
:103660000047204639464FF0FF32144B04F05EFB12
:1036700038B9204639464FF0FF32104B04F038FB82
:1036800018B1D8F8003022221A60B0EE480ABDEC1A
:10369000028BBDE8F081002D094804DAFEF728FB13
:1036A000B1EE408AF1E7BDEC028BBDE8F041FEF7D8
:1036B0001FBB00BF6C000020FFFF7F7FFFFFEF7F7D
:1036C000986C0208040000202DE9F04F8146414F1C
:1036D000084600E02846054615F8014B3E5D16F009
:1036E0000806F7D12D2C53D02B2C0ABF90F801B02F
:1036F000A346851C1BB1102B4FD09E4604E0BBF1A6
:10370000300F54D00A239E46002E0CBF6FF00048A5
:103710004FF000480027B8FBFEFC38460EFB1C8A21
:1037200005E029D000FB0E40012715F801BBABF1E5
:103730003004092C05D9ABF14104192C0BD8ABF19D
:103740003704A3420FDDB7F1FF3FEED08445E8D246
:103750004FF0FF37E9E7ABF16104192C03D8ABF167
:103760005704A342EFDC7B1C0BD006B140420AB1E8
:103770004FBB1160BDE8F08FA245D3DA4FF0FF37A1
:10378000D3E72223C9F80030FAB1691E4046F0E7BA
:10379000851C90F801B00126ACE7BBF1300FACD12D
:1037A000287800F0DF00582806D09E46ACE72B783A
:1037B00003F0DF03582B0AD14FF0100E95F801B03B
:1037C00073460235A0E78046DFE74046D2E708238C
:1037D0009E4699E7F149020876E700BF10B4044C11
:1037E00013460A46014620685DF8044B6CE700BFAB
:1037F0000400002010B4044C13460A460146206819
:103800005DF8044B60E700BF04000020F8B50D46EA
:103810001446064608B1836943B3254B9C422AD01F
:10382000244B9C4229D0244B9C4208BFF468A389B6
:10383000A269A2601A0722D5236903B322686169CD
:10384000D31AEDB299422F4629DD0133A168501CED
:103850000139A1602060157062699A4216D0A3896F
:10386000DB0701D50A2D11D03846F8BD01F054FA16
:103870000F4B9C42D4D17468D9E7B468D7E721468E
:10388000304600F039F838B92369D7E72146304689
:1038900001F018F90028E7D04FF0FF37E4E72146A0
:1038A000304601F00FF90028F6D122680123CDE758
:1038B000344B0208144B0208F44A0208024B0A4631
:1038C00001461868FFF7A2BF0400002070B50D463E
:1038D000084C114606461A462846002323601AF073
:1038E00041FB431C00D070BD2368002BFBD033602C
:1038F00070BD00BF8C4500203B4B70B51D6806466F
:103900000C460DB1AB69DBB1384B9C421ED0384B35
:103910009C424AD0374B9C4208BFEC68B4F90C205B
:1039200093B2190718D5206908B313F001022CD0FF
:10393000636900225B42A361A26060B3002070BD96
:10394000284601F0E9F9294B9C42E0D16C68B4F9B2
:103950000C2093B21907E6D4DD063CD5580726D4CF
:10396000206942F00803A3819BB20028DDD103F453
:103970002072B2F5007FD8D03046214601F0D8FF42
:10398000A389206913F00102D2D1990758BF626957
:10399000A2600028D2D1B4F90C301A06CFD543F07A
:1039A0004003A3814FF0FF3070BDAC68B6E7616B98
:1039B00051B104F14403994204D03046FCF71EFF94
:1039C000B4F90C200023636300232069636022F0B4
:1039D00024022060C5E742F04002092333604FF023
:1039E000FF30A28170BD00BF04000020344B0208EC
:1039F000144B0208F44A020838B5074C0023054668
:103A00000846236005F0D0FB431C00D038BD236876
:103A1000002BFBD02B6038BD8C450020000000003F
:103A20002DE9F04F03690F69BB4283B0C0F2868075
:103A3000013F01F1140900F1140A59F827205AF83E
:103A40002730BC000132B3FBF2F80AEB0403009408
:103A500009EB040B0193B8F1000F38D000252E4676
:103A6000CE46D4465EF8044BDCF80030A2B208FB28
:103A70000255220C2C0C08FB0242ADB2751B96B20B
:103A8000C6EB134615FA83F306EB23469BB243EAD3
:103A90000643F3454FEA12454CF8043B4FEA2646ED
:103AA000E0D2009B5AF803308BB9019A131F9A4554
:103AB0000CD252F8043C4BB9A2F1080302E01A6898
:103AC000043B1AB99A4507F1FF37F8D3076104465A
:103AD00002F0E2FA00282DDB08F101085546002328
:103AE00059F8041B28688AB29A1A0B0C12FA80F251
:103AF000C3EB104303EB224392B242EA0342CB45AD
:103B000045F8042B4FEA2343EAD25AF827200AEB60
:103B100087037AB91A1F92450BD253F8042C42B985
:103B2000083B02E01A68043B1AB99A4507F1FF37CF
:103B3000F8D32761404603B0BDE8F08F002003B002
:103B4000BDE8F08F2DE9F04F55EC104B9BB0466A65
:103B50000291814607920593CDE90045002E00F0C1
:103B6000F180316851B172684A60012393408B60E3
:103B700002F03AF8D9F8243000221A60B5F10008B2
:103B8000249AB4BF0123002313607D4BBCBF28F0EF
:103B90000048CDF8048033EA080300F0A880DDE98E
:103BA0000067002200233046394604F08DF80546B0
:103BB00078B1059A01231360259B002B00F0CC807F
:103BC000704B259A03F1FF3B136058461BB0BDE8CC
:103BD000F08F18AA19A947EC106B484602F076FB43
:103BE0005FEA1854824640F0A280DDE918542C4464
:103BF00004F23243202B40F34F84C3F1400308FA10
:103C000003F8009B04F2124023FA00F048EA000097
:103C100003F078FD01230646013CA1F1F8770F93EC
:103C2000304639460022584B03F02EFC4EA3D3E910
:103C3000002303F0E1FD4EA3D3E9002303F026FCAB
:103C4000064620460F4603F06DFD4BA3D3E9002343
:103C500003F0D2FD02460B463046394603F016FC0F
:103C600006460F4604F078F80022069000233046FE
:103C7000394604F033F8002840F08182069E162E63
:103C800000F26B82414B03EBC603D3E90001DDE98F
:103C9000002304F041F8002800F00584731E069309
:103CA00000230D932C1BB4F1010800F16282002364
:103CB0000893069B002BC0F2538298440C93002378
:103CC0000B93029B092B69D8052BC4BF043B0293BD
:103CD000029BA3F10203CCBF00250125032B00F2B8
:103CE0009F84DFE813F00204E3030D040605059A40
:103CF00042F20F731360009B83B9C8F313036BB9CF
:103D0000259BDFF88CB0002B3FF45FAF0BF108036D
:103D1000259A584613601BB0BDE8F08F259BDFF84D
:103D200074B0002B3FF451AF0BF10303F0E7C7F37E
:103D3000130343F07F570F95A4F2FF3447F4401765
:103D4000189D6DE71020FCF765FCC9F82400C0E958
:103D500001660660C66011E7DFF83CB058461BB04C
:103D6000BDE8F08FAFF3008061436F63A787D23F58
:103D7000B3C8608B288AC63FFB799F501344D33F5A
:103D80000000F07F755E02080000F83F704C0208EA
:103D9000D07B0208DC7B0208745E02084FF0FF341F
:103DA0000125CDE90945002302930793D9F8246042
:103DB0000E9400217160484601F0E2FED9F82430EB
:103DC00030600E2CD3F800B000F2F980002D00F026
:103DD000F6809DED007B069900298DED107B40F368
:103DE000DF839C4B01F00F0203EBC20393ED007BDA
:103DF0000C11E2068DED007B40F19984964BDDE9D4
:103E00001001D3E9082303F021FECDE9120104F0EB
:103E10000F0403267CB1DDE900018F4DE30704D5D3
:103E2000D5E9002303F0E8FC0136641005F108052C
:103E3000F4D1CDE90001DDE90023DDE9120103F051
:103E400005FECDE900010D9B43B10022834BDDE966
:103E5000000103F043FF002840F0FA84304603F0ED
:103E600061FCDDE9002303F0C7FC7D4B002203F079
:103E70000DFB099B0646A1F15077002B00F0128440
:103E8000069B1693099B1293DDE9000103F064FF82
:103E9000129A704B03EBC20313ED027B00F1300565
:103EA0008DED147B03F03EFC0B460246DDE900017C
:103EB000CDE9006703F0E8FA0A9BEDB206460F462B
:103EC0000BF10104002B00F05384DDE914230020E2
:103ED000644903F0BBFDDDE9002303F0D5FA8BF85C
:103EE000005032463B46CDE9000103F015FF0028A3
:103EF00040F0FD8432463B460020584903F0C4FAA6
:103F0000DDE9002303F0EAFE002840F0F884129A6D
:103F1000012A50D05A44CDF85C80CDF848A0CDF8A5
:103F200050B09246CB46DDE900890CE000204B49B9
:103F300003F0AAFA42464B4603F0D0FE002840F0B8
:103F4000D984544530D0404649460022464B03F0C0
:103F500053FC0022444B804689463046394603F0E4
:103F60004BFC0F46064603F0F7FE054603F0DAFB6E
:103F700002460B463046394603F086FA3035EDB23C
:103F800042464B4604F8015B06460F4603F0A6FE88
:103F900032463B460028C9D0169BDDF848A0069360
:103FA000D946DDF850B035E2D946DDF85C80DDF861
:103FB00048A0DDF850B0DDE91034CDE90034199B9C
:103FC000002BC0F2AD80069A0E2A00F3A980214B87
:103FD00003EBC20393ED007B079B002B8DED027B6F
:103FE000C0F2BA82DDE90067DDE9022330463946D6
:103FF00003F02CFD03F0B0FE054603F093FBDDE972
:10400000022303F0F9FB0B4602463946304603F023
:104010003BFA05F130038BF80030099B012B064673
:104020000F460BF1010452D000220F4B03F0E4FBCA
:104030000022002306460F4603F046FE002840F00B
:10404000E981CDF800A0CDF81C90DDF82480DDE9F1
:10405000029A16E0704C0208604D02080000F03F22
:1040600000001C400000E03F0000244003F0C4FBBF
:104070000022002306460F4603F026FE002840F0EB
:104080003B834A4653463046394603F0DFFC03F093
:1040900063FE054603F046FB4A46534603F0ACFB7D
:1040A00002460B463046394603F0EEF905F1300C76
:1040B00004F801CBA4EB0B0CE04506460F464FF08D
:1040C0000002C14BD2D1DDF800A0DDF81C903246D1
:1040D0003B463046394603F0D9F9DDE9022306466E
:1040E0000F4603F019FE58B9DDE902233046394680
:1040F00003F0EAFD002800F08D81E90740F18A8194
:1041000014F8015C05E09B4500F0718313F8015C35
:104110001C46392D04F1FF33F5D001351D7079E1CE
:104120000A9A002A3BD0029A012A40F30882099B8E
:104130005F1E0B9BBB42C0F2E482DF1B099B002B7E
:10414000C0F20983089A14461A449844089201213F
:10415000484601F03FFE054624E001230D93A1E50A
:10416000089A069BD21A5B420B93002308920C9389
:10417000A7E5C4F1010308934FF0000899E5DDF8C5
:104180001880404603F0CEFA32463B4603F09CFDD1
:1041900000287FF473AD08F1FF3306936EE50B9FA3
:1041A000089C0A9D002C0CDDB8F1000F09DD444588
:1041B000089A2346A8BF4346D21A0892E41AA8EBED
:1041C00003080B9B6BB10A9A002A00F08B82DE1B5E
:1041D000002F40F0988151463246484601F0AAFE31
:1041E00082460121484601F0F5FD0C9A0646002A58
:1041F00040F02581029B012B40F3BD830120404408
:1042000010F01F0000F01981C0F12003042B40F3CF
:10421000AD83C0F11C00089B034408930444804410
:10422000089B002B05DD51461A46484601F0DEFE8C
:104230008246B8F1000F05DD31464246484601F09E
:10424000D5FE06460D9B002B77D1099B002B40F332
:1042500007820A9B002B00F08980002C00F3688104
:104260000C9B002B40F0C581A846009ACDF82CB0DD
:1042700002F001020A92099A0BF1FF331A445F46D9
:104280000992B34659465046FFF7CAFB29460446F1
:10429000504601F001FF594606464246484601F0A5
:1042A00017FF04F130030093C3680146002B40F070
:1042B000D2810890504601F0EFFE089A079011460F
:1042C000484601F091FC079B33B9029A22B90A9B38
:1042D000002B00F01783029B002EC0F21A8205D13A
:1042E000029A1AB90A9A002A00F01382002B07F1E9
:1042F000010400F32382009B3B70099BBB4200F04A
:104300002E82514600230A22484601F089FC454589
:10431000824629464FF000034FF00A02484600F05B
:10432000948101F07DFC4146054600230A2248465F
:1043300001F076FC27468046A4E73146504601F05E
:10434000ABFE002881DA069F514600230A22484628
:10435000013F069701F064FC0A9B8246002B40F067
:10436000E9820E9B002B40F3F18209935C46DDF855
:10437000248002E001F054FC824631465046FFF7AB
:104380004FFB00F1300704F8017BA4EB0B0343451E
:104390004FF00A024FF0000351464846EADB002383
:1043A0000097029351460122484601F01FFE314614
:1043B000824601F071FE002814F8012C14DC08D1AB
:1043C000009BDB0710D404E00000244014F8022C0A
:1043D0001C46302A04F1FF33F8D00BE09B4500F077
:1043E0004C8113F8012C1C46392A04F1FF33F5D017
:1043F00001321A703146484601F0F6FB55B1029978
:1044000021B1A94202D0484601F0EEFB29464846B8
:1044100001F0EAFB5146484601F0E6FB0022069B0C
:104420002270059A01331360259B002B3FF4CDAB1E
:1044300058461C601BB0BDE8F08F1C20EBE601461F
:10444000484601F077FD029B012B064600F3E5800C
:10445000009B002B40F0E180DDE90012C2F3130362
:10446000002B40F0CE8122F000431B0D1B052BB129
:10447000089B0133089308F1010801230C9A0C935F
:10448000002A3FF4BBAE336906EB8303186901F0E1
:1044900051FCC0F12000B2E6C3F12008009B03FAF2
:1044A00008F0FFF7B5BB0D90FFF7FCBB00230A93A4
:1044B000DDE9063213445C1C012C27460E93099457
:1044C000B8BF0127D9F824600021172F71607FF64B
:1044D00072AC012204235B0003F11400B8421146C0
:1044E00002F10102F7D9716065E400230A93079B8A
:1044F000002B40F3F2801F461C460E930993E1E720
:1045000001230A93F3E73A462946484601F012FD93
:10451000524601460546484601F066FC51460746AC
:10452000484601F061FBBA46002E3FF45AAE52E60F
:1045300029462246484601F059FD054690E60F9A65
:10454000002A00F0608103F23343089A0B9F14465F
:104550001A4498440892FAE5099B002B3FF742ADB4
:1045600040F0B88051EC170B0022B34B03F044F934
:10457000DDE9002303F0C6FB099E3546002877D10C
:10458000069A3123013206928BF800300BF10104B8
:104590003146484601F028FB002D7FF437AF39E75C
:1045A00000F04381069B5C42A44B04F00F0203EB36
:1045B000C203D3E90023DDE9100103F01DF9241142
:1045C000CDE9000100F0C7819D4D00230226E707D9
:1045D00005D5D5E9002303F00FF901360123641056
:1045E00005F10805F3D1002B3FF42DACCDE9000116
:1045F00029E46968484601F0C3FA2B6902339A003E
:10460000044605F10C010C30FCF714F82146012298
:10461000484601F0EBFC804627E600230C9332E786
:10462000D9F8245000246C602146484601F0A8FACD
:10463000D9F8243028604FF0FF32D3F800B0099247
:10464000012307940E920A93B9E401F0E9FA274690
:104650000546804616E6484601F0C6FA01233BE6C9
:10466000029B022B7FF7F5AD099B002B00F0CF805A
:10467000079BDB4306935C468AE7069A31230132A7
:1046800006928BF80030B5E6304603F04BF8DDE9D2
:10469000002303F0B1F800226A4B02F0F7FE064651
:1046A000A1F150770022644BDDE9000102F0ECFE3D
:1046B00032463B4604460D4603F02EFB002854D1FB
:1046C000324607F100432046294603F007FB002845
:1046D0003FF471AC00263546CAE7012409940794DB
:1046E000FFF764BB51460B9A484601F023FC824613
:1046F00077E501230A93DBE6DDF800A0DDF81C90E6
:1047000088E60B9B0C9AFB1A1A44CDE90B72002722
:1047100014E5002B02945E4607F10104DDF82CB08D
:1047200000F3BA80009B02953B70454662E69DED22
:10473000107B02268DED127BFFF76CBB009B392BA3
:104740005E46DDF82CB000F0B980009B0295013385
:104750003B7045464EE6DDE908329C1AF7E45E46BA
:104760000295DDF82CB045461CE60026354607E7E5
:10477000DDE91423DDE9000103F03EF8129B8BF81C
:104780000050012BCDE9000120D0129BCDF84880CC
:104790005B44984600222C4B3046394603F02CF8F7
:1047A0000F46064603F0D8FA054602F0BBFF303547
:1047B00002460B463046394602F066FE04F8015BBD
:1047C000444506460F46E5D1DDF848801F4B0022E0
:1047D000DDE9000102F05AFE32463B4603F07EFA64
:1047E000002870D0169B069314F8015C91E43023E6
:1047F0008BF80030069B14F8015C013306935B468E
:104800008BE400233AE6189BC3F136039DE631465C
:104810000522484601F004FA01460646504601F0DA
:104820003BFC00283FF7ACAE22E79DED107B022653
:104830008DED007BFFF707BB00001440704C0208B1
:10484000604D020800001C40000024400000E03FD2
:10485000099B002B3FF418AF0E9C002C7FF7ABABED
:104860000022474BDDE9000102F0C6FFCDE900015F
:10487000701C02F057FFDDE9002302F0BDFF414B41
:10488000002202F003FE069B1294013B0646A1F1B2
:1048900050771693FFF7F8BA51460122484601F0C7
:1048A000A5FB3146824601F0F7FB00283BDD009B6B
:1048B000392B03D0029B3133009333E73922029521
:1048C0003A70454690E5DDE9002300202E4902F0CC
:1048D000DBFD32463B4603F01FFA10B9FFF76BBB16
:1048E000144614F8013C302B04F1FF32F8D0169B2B
:1048F00006938FE5D946DDF848A0DDF850B0169B49
:10490000069306E4009B392B2146324607F1010449
:104910005E46DDF82CB0D1D0002A7FF703AF0B46FE
:1049200031330093FEE67FF4FDAE009BDA077FF59E
:10493000F9AEBCE7294600230A22484601F070F987
:104940000E9B002B054609DD099386E4029B022B92
:1049500009DC0E9B09E50226FFF775BA029B022BC4
:1049600001DC0E9BF0E70E9B09937DE63FF458AC0B
:10497000C0F13C004FE4009B002B3FF46DAD3DE4E3
:104980000000244000001C400000E03F8B891A0713
:104990002DE9F0410C4680463CD44A68002A54DD9B
:1049A000E56A002D4ED00022D8F80060216AC8F8D0
:1049B000002013F480527CD101234046A847431CB9
:1049C00047D0A389E56A216A5F0705D56268636BF2
:1049D000801A0BB1236CC01A024600234046A84738
:1049E000451C42D0A38922692260DB044FF00002FB
:1049F000626000D56065616BC8F8006011B304F1B6
:104A00004403994202D04046FBF7F8FE0020606361
:104A1000BDE8F0810E69AEB10D680E609A070CBF5B
:104A20004B690023AD1B8B600AE02B463246A76A18
:104A3000216A4046B8470028A5EB0005064428DD5A
:104A4000002DF2DC0020BDE8F0810A6C002AA7DC12
:104A5000F8E7D8F80030002BB3D01D2B01D0162B6F
:104A600029D1C8F800600020EDE7D8F800201D2A01
:104A700017D8134BB4F90C10D340DB4313F00103E8
:104A800011D12569C904C4E90053B4D5002AB2D1B3
:104A9000B0E7A38943F04003A3814FF0FF30BDE8A6
:104AA000F081B4F90C1041F04001A1814FF0FF30CA
:104AB000C9E7606D88E7A38943F04003A381C2E79B
:104AC000010040200B6923B310B5044682B008B141
:104AD0008369BBB1104B994212D0104B994216D04A
:104AE0000F4B994208BFE168B1F90C3013B90020AF
:104AF00002B010BD204602B0BDE81040FFF746BF2F
:104B00006168F1E7019100F007F90199E2E7A16816
:104B1000EAE70020704700BF344B0208144B02083C
:104B2000F44A020820B1054B01461868FFF7CABFD6
:104B3000034B0449186800F0B3BA00BF040000201A
:104B40009C490208C54A000800207047014900F04E
:104B5000A7BA00BFC54A00080020704770B54A1EBA
:104B6000682505FB02F50E4605F17401FBF79AFE78
:104B7000044640B100210C30666005F168022160F6
:104B8000A060FBF7F1FD204670BD00BF1E4B70B565
:104B90001D68AB69064643B34835D5E90134013B8E
:104BA00005D51EE0013B5A1C04F1680419D0B4F984
:104BB0000C20002AF6D10025144B6566C4E9005587
:104BC000A560C4E90455A5612946E360082204F103
:104BD0005C00FBF7C9FDC4E90D55C4E91255204638
:104BE00070BD286828B10546D7E7284600F010F8C0
:104BF000D2E704213046FFF7B1FF28600028F2D148
:104C00000C2304463360EAE79C4902080100FFFFD9
:104C10002DE9F84F334B34491A68816290424FF0C6
:104C20000003C0E91233036504BF01238361054615
:104C3000FFF7ACFF68602846FFF7A8FFA86028468A
:104C4000FFF7A4FF6E68E86000240423F360746635
:104C5000C6E90044B460C6E90444B461214606F1E3
:104C60005C000822FBF780FDDFF888B0AF68DFF852
:104C700088A0DFF88890DFF888801C4BC6F8308069
:104C8000C6E9086BC6E90AA92146FB6008227C66D2
:104C9000C7E90044BC60C7E90444BC6107F15C009B
:104CA000FBF762FDEE68124BC7F83080C7E9087B5E
:104CB000C7E90AA92146F3607466C6E90044B460F6
:104CC000C6E90444B46106F15C000822FBF74CFD20
:104CD0000123C6E9086BC6E90AA9C6F83080AB61B2
:104CE000BDE8F88F9C4902084D4B000809000100FF
:104CF00012000200B9200008E12000081D21000870
:104D00003D210008024B0349186800F0C9B900BFF3
:104D10009C490208C54A0008836903B978E77047CF
:104D2000704700BF704700BF704700BF704700BFAB
:104D3000024B0349186800F08DB900BF0400002041
:104D4000494B0008024B0349186800F083B900BFC3
:104D500004000020594B00089368002B00F0E48009
:104D60002DE9F04FB1F90C309BB20C46190783B016
:104D70008246904635D522699AB313F00202D8F8DC
:104D800000603DD00027D4F828B0D4F820C0DFF868
:104D9000C0923D464D452B463A4628BF4B4661469C
:104DA0005046D5B1D847002840F3C680D8F808301F
:104DB0001B1A07442D1AC8F80830002B00F0B080E9
:104DC000D4F820C0D4F828B04D452B463A4628BF29
:104DD0004B4661465046002DE4D1D6E900750836B1
:104DE000D8E721465046FEF787FD002840F02A818B
:104DF000B4F90C30D8F800609BB213F00202C1D1B4
:104E000013F001095DD1A76820684D46002D54D0EC
:104E10009A0540F19B80AF42BB4600F2D88013F464
:104E2000906F2FD0D4E9041707EB4707A0EB010BD5
:104E300007EBD777681C7F105844B8423A4684BFC6
:104E400007463A465B0540F1D38011465046FBF7D2
:104E500029FD002800F0F0805A4621690190FBF7F7
:104E6000E9FBA289019B22F4906242F08002A281B8
:104E7000A7EB0B0203EB0B00676123612060A260CC
:104E80002F46AB465A46494600F012FEA2682368F8
:104E9000D21B5B442F46A26023600025D8F808305F
:104EA000DB1BB944C8F80830002B39D0B4F90C30FA
:104EB000A76820689BB2002DAAD1D6E900950836D4
:104EC000A4E733469146104617464E469B46002FB0
:104ED0006BD0002871D0D4E904122068B9454B4644
:104EE00028BF3B46884203D9A5681544AB4271DC14
:104EF0009A4200F393801346A56A216A32465046CF
:104F0000A847051E18DDB9EB05090FD00120D8F818
:104F100008305B1B2E447F1BC8F80830002BD6D10D
:104F2000002003B0BDE8F08F0020704721465046B6
:104F3000FFF7C8FD0028EAD0B4F90C3043F0400375
:104F40004FF0FF30A38103B0BDE8F08F23698342A7
:104F500015D36169A94212D83C4BA76A9D4294BF00
:104F60002B466FF000434A4693FBF1F3504601FB9A
:104F700003F3216AB847071EDEDDED1B8EE7AF4263
:104F800028BF2F463A46494600F092FDA3682268A2
:104F9000DB1B3A44A3602260002BEED12146504631
:104FA000FFF790FD0028E8D0C6E70BF1080353E9AE
:104FB00002679B460833002FF9D03A460A21304653
:104FC00000F026FD38B30130A0EB060983E72F4639
:104FD000AB4657E731462A4600F06AFD23682B446A
:104FE000236021465046FFF76DFD00288BD0A3E7D4
:104FF000504601F07BFA034600287FF439AF21695F
:105000005046FBF7FBFBB4F90C300C2223F0800375
:10501000CAF8002092E707F101095CE71A46314619
:10502000019300F045FD019BA1682268C91A1A444A
:10503000A16022601D4666E70C23CAF80030B4F96F
:105040000C307BE74FF0FF306BE700BFFEFFFF7FC8
:1050500000FCFF7F2DE9F04110F148071BD0884686
:105060000026D7E90154013D0FD4A389012B05F196
:10507000FF35204605D9B4F90E30013301D0C047C1
:1050800006436B1C04F16804EFD13F68002FE8D1A0
:105090003046BDE8F0813E463046BDE8F08100BFB5
:1050A0002DE9F84310F148071FD0884606464FF017
:1050B0000009D7E90154013D11D4A389012B05F161
:1050C000FF352146304606D9B4F90E30013302D0FF
:1050D000C04749EA00096B1C04F16804EDD13F6840
:1050E000002FE6D14846BDE8F883B9464846BDE8FA
:1050F000F88300BF2DE9F04104694B119C422EDD7D
:1051000000F1140C11F01F0167460CEB84040CEB4A
:1051100083052AD05CF823202E1DB44222FA01F226
:10512000C1F1200813D900F1100E336803FA08F317
:1051300013434EF8043F56F8042BA64222FA01F21C
:10514000F3D3631B053B23F0030304339C44CCF8E7
:10515000002012B30CF10403DA1B921018E00023B4
:10516000036100234361BDE8F081AC42F7D900F14F
:1051700010022B4653F8041B42F8041F9C42F9D836
:10518000EA43224422F0030204320CEB02039210A1
:10519000BB420261E5D0BDE8F0816346DA1B9210A4
:1051A000F6E700BF2DE9F04FBC4C8DB024680790A6
:1051B0008946204604920A930594FDF741F9D9F8EF
:1051C0000030039021189A7811F8011C0191302ABF
:1051D00040F0898103334FF000081C4613F8012B7F
:1051E000302A08F10108F8D0AD4EB35C002B00F076
:1051F000F08023784FF0000AF35C5546274623B130
:1052000017F8013FF35C002BFAD1039A0599384651
:10521000FDF784F9002800F090803B78002D40F0E5
:105220009080502B029500F09280702B00F08F80C0
:105230003D46C9F80070BAF1000F40F0B7802B1B53
:10524000013B072B514604DD5B10072B01F10101E7
:10525000FADC079800F094FC03461433AC42069045
:10526000089380F0B1819B46039B4FF00008C3F187
:105270000103C146099311E0B8F1200F00F09F80AF
:10528000424608F1040815F8013CF35C554603F06A
:105290000F039340A54249EA030918D915F8013CC8
:1052A000019A934205F1FF3A0BF10407E4D1099BFF
:1052B0005344A342E0D31846039A05990B93FDF794
:1052C0002DF90B9B0028D7D11D46A542E6D8089B97
:1052D000CBF80090FF1A069BBF101F61484600F0F4
:1052E00029FD049B7F011E683F1AB74200F3DC8052
:1052F000C0F210810025049B029A9B689342C0F281
:1053000034810498029A4368934273DD9C1AA64242
:1053100000F3A480C268022A00F08D81032A00F005
:105320008581012A00F06081DDE9061000F05CFC57
:10533000169A0023136050243DE0002D00F0DC801D
:105340003B78ED1BAA00502B02927FF46EAF7B7866
:105350002B2B00F0A7802D2B67D07A1C0025F35C47
:10536000591E18293FF664AF5178715C481E182801
:10537000A3F1100302F101020BD812F8010F03EBA5
:10538000830301EB4303315C481E1828A3F110038B
:10539000F3D905B15B4202993D4619441746029183
:1053A000C9F80070BAF1000F3FF449AFB8F1000F2F
:1053B0000CBF0624002420460DB0BDE8F08F5B46EC
:1053C000002243F8089BBB4691461F464FF0040855
:1053D00059E7039D05992A462046FDF79FF840B3FB
:1053E00022782746502A00F08280702A7FD0C9F8A0
:1053F0000070DBE7012465B1049BDB68022B00F041
:10540000BD80032B00F0BE80012B00F0068144F02C
:105410001004169B1A46069B13600A9B1A46029BB1
:10542000136020460DB0BDE8F08F0125BB78BA1C93
:1054300095E7625DB35C6719002BD3D0302A3C46F8
:1054400004D114F8013F302BFBD0F35CB3FA83FA9C
:105450003D464FEA5A1A4FF00108CFE6671E002D6D
:1054600040F0BA80002F40F0B9807B11089A06986E
:1054700052F8232007F01F07012303FA07F717420A
:10548000214618BF45F00205FFF734FE049B5B6818
:105490000293361B0224002DBBD0ADE7544C02080A
:1054A000544B02080025C1E7BF1B3946069800F09F
:1054B000E3FF054678B17A1E5111089802F01F03E8
:1054C00050F82110012505FA03F30B4203D0AA423C
:1054D00000F3B5800225029B06983B4439460293AF
:1054E000FFF708FE07E79C1C4FF000087CE600234E
:1054F00002934FF0010A2AE703997B5CF25C7D1866
:105500002F46002A3FF41DAF17F8013FF25C002A36
:10551000FAD116E7F71B069907983A4600F066FDA0
:10552000029B0690DB1B029303461433089300256D
:10553000E1E6069B9B689D4280F291802B4606988F
:1055400000EB830201210133022C036151617FD002
:105550009D4234DA01210698FFF7CCFD049B029AA4
:105560009B680132934202922CDADDE9061000F0CA
:105570003BFB169A00231360A3241CE7179BC3F17F
:1055800001031793179B002B3FF441AF069BDDF8F7
:1055900020C01D69AF000CEB07006346002103E04B
:1055A000984243F8041CC4D99E4653F8042BB2F128
:1055B000FF3FF5D00132022CCEF8002048D016F083
:1055C0001F0668D1212424E7069BDDF820B003F1F3
:1055D00018074FF000097AE6012546E73946069894
:1055E00000F04AFF054640E7A6427FF49DAE012E3B
:1055F00008DD711E069800F03FFF00283FF494AECE
:10560000049B5B680A990B60069B089901221A614A
:105610000A60169A62241360CDE6AA077FF5F7AEFA
:10562000089B1B681D43EB07B0D4F0E6179A002ACD
:105630003FF47AAEE6E7179A002AE3D074E6B91E83
:10564000069800F019FF00283FF444AF032542E715
:10565000049B1B68013BB34227D02224D9E6069B5A
:10566000DDF81C9059684846013100F089FA069926
:105670000B69023380469A000C310C30FAF7DAFFDE
:105680000699484600F0B0FACDF8188008F1140CDD
:10569000D8F8103053E76744C6F1200657F8040CD9
:1056A00000F048FBB0428DDA54E7731106F01F0694
:1056B0005CF823200123B340134214BF2124222489
:1056C000A7E600BF30B40468013408E014F8013BD9
:1056D000A3F14105192D98BF2033934207D111F84A
:1056E000012B002AF2D10460012030BC7047002059
:1056F00030BC70472DE9F04F0B68DFF894E1591189
:1057000002EB810985B013F01F0318BF09F10409EA
:1057100001900393002349F8043C98469A461C469E
:10572000019BCDF808901B685F78A9F10406B44688
:105730003146B3469146581CDFB11EF80750002D84
:1057400040D1202F5BD854450EDD614502D2B8F11F
:10575000070F5EDD49454ED90023A1F1040C41F845
:10576000043CA2466146984603465F78581C002FC9
:10577000E3D14A465E46DDF80890002C45D06145ED
:1057800002D2B8F1070F70DD914259D9134651F892
:10579000040B43F8040B8E42F9D2002143F8041B9A
:1057A0009E42FBD259F8041C21B145E056F8043D55
:1057B000002B41D1B242F9D101230520136005B07D
:1057C000BDE8F08F08F10108B8F1080F04F10104F9
:1057D00007DC0A68120105F00F0515430D6003464A
:1057E000C3E74945C0D9002341F8043C1A460439AF
:1057F0004FF00108EFE74FF008080346B5E7292FFF
:105800004A465E46DDF8089029D0042005B0BDE880
:10581000F08FC8F108039B000A68C3F120080D4609
:105820006F6807FA08F6164327FA03F22E6045F868
:10583000042FAC45F4D88DE7052005B0BDE8F08F06
:10584000039B59F8041C002BAED0C3F120034FF08A
:10585000FF3020FA03F3194049F8041CA4E701982B
:1058600002330360002C8AD1CFE7C8F108039B0004
:105870000D68C3F1200E0846476807FA0EF42C4362
:1058800027FA03F5046040F8045F8445F4D87BE709
:10589000544B0208F0307047004870475C0100200C
:1058A000004870475C01002070B50D46084C114659
:1058B00006461A4628460023236003F09DFC431C3D
:1058C00000D070BD2368002BFBD0336070BD00BFDB
:1058D0008C45002070B50C46B1F90E10002996B029
:1058E00016461D460FDAA38900221B062A6005D43E
:1058F0004FF480630020336016B070BD4023002059
:10590000336016B070BD6A4601F08CFD0028EADBFA
:10591000019B03F47043A3F50053B3FA83F35B09CF
:105920004FF4806200202B60326016B070BD00BF63
:105930008A8992070B4606D501F1470201211A60B8
:10594000C3E90421704770B582B001AB6A460C46CA
:105950000546FFF7BFFF009906462846FAF7A2FF63
:10596000B4F90C30D8B11649A962019A00992060A7
:1059700043F08003A381C4E904011AB93343A3812E
:1059800002B070BD2846B4F90E1001F05FFDA0B161
:10599000A38923F0030343F001031BB2EEE79A054A
:1059A000EED423F0030304F1470243F00203012184
:1059B000A3812260C4E90421E2E7B4F90C30DDE7F9
:1059C0004D4B000810B4034CD4F8E440A4465DF8F5
:1059D000044B60476C00002082B049B15AB16BB1F2
:1059E00013780B601278101C18BF012002B07047AA
:1059F00001A9002AF3D1104602B070476FF00100F0
:105A0000F4E700BF000000000000000000000000FC
:105A100001F0FF01102A2BDB10F0070F08D010F85F
:105A2000013B013A8B422DD010F0070F42B3F6D163
:105A3000F0B441EA012141EA014122F007047FF07C
:105A400000070023F0E80256083C85EA010586EAD3
:105A5000010685FA47F5A3FA87F586FA47F6A5FA0F
:105A600087F68EB9EED1F0BC01F0FF0102F007021B
:105A700032B110F8013B013A83EA010313B1F8D1C6
:105A80000020704701387047002D06BF35460338A7
:105A9000073815F0010F07D1013015F4807F02BFE0
:105AA000013015F4C03F0130F0BC0138704700BF31
:105AB0008842F0B40DD98B1883420AD9841832B1C8
:105AC000224613F8014D02F8014D9942F9D1F0BC7C
:105AD00070470F2A49D940EA01039B0747D1A2F139
:105AE00010031B0901F1200707EB031701F1100454
:105AF00000F1100554F8106C45F8106C54F80C6C5B
:105B000045F80C6C54F8086C45F8086C54F8046CB3
